:0C01390048656C6C6F00576F726C6400BE
:02014500C100F7
:10000300E4FDFCC3ED9FEC9E50070DED70010C80E9
:02001300F222D7
:10001500C2A0C2A18FA0D2A27490FF7E01120003DC
:03002500C2A22252
:10002800AB07300004C2008002C2A0C2A1AA0353D9
:1000380002F053A00FEA42A0D2A27490FF7E0112F0
:100048000003C2A2EBC454F0FA5302F053A00F42CB
:0E005800A0D2A27490FF7E01120003C2A22269
:08006600D200D2A012002822F2
:10006E007490FF7E011200037F301200157490FF12
:10007E007E011200037F301200157490FF7E011274
:10008E0000037F301200157490FF7E011200037F73
:10009E00201200157490FF7E011200037F281200BB
:1000AE00287490FF7E011200037F041200287490C2
:1000BE00FF7E011200037F851200287490FF7E01DF
:1000CE001200037F061200287490FF7E01120003B7
:0E00DE007F011200287490FF7E0112000322A1
:1000EC008B088A09890AE4F50BF50CAB08AA09A957
:1000FC000A850C82850B831201D4FF600D120066F9
:0B010C00050CE50C7002050B80E122E1
:1001170012006E7F0F1200287B057A0179391200D1
:10012700EC7FC01200287B057A01793F1200EC8032
:02013700FE22A6
:03000000020148B2
:0C014800787FE4F6D8FD75812002018F5D
:1001D400BB020CE58229F582E5833AF583E02240EF
:1001E40003BB0406E92582F8E622400DE58229F5E1
:0F01F40082E5833AF583E49322E92582F8E2223B
:10015400020117E493A3F8E493A34003F68001F2A9
:1001640008DFF48029E493A3F85407240CC8C333AC
:10017400C4540F4420C8834004F456800146F6DF7B
:10018400E4800B0102040810204080900145E47EC5
:10019400019360BCA3FF543F30E509541FFEE49370
:1001A400A360010ECF54C025E060A840B8E493A337
:1001B400FAE493A3F8E493A3C8C582C8CAC583CA62
:1001C400F0A3C8C582C8CAC583CADFE9DEE780BE1A
:0101470000B7
:00000001FF
