:06000000020E60021179FE
:03000B0002101EC2
:10080000E549243DF8E6054922783A300702783D6B
:10081000E475F001120E2A020DFF2000EB7F2ED2AC
:10082000008018EF540F2490D43440D4FF30040BD0
:10083000EF24BFB41A0050032461FFE54A6002159B
:100840004A054DE54D7002054C30070D783AE475C8
:10085000F001120E2AEF020E180210A37403D20741
:100860008003E4C207F5498B3A8A3B893CE4F54AA8
:10087000F54CF54DE54A60077F2012083B80F57581
:100880004BFFC201C200C202C203C205C206C208B7
:10089000120809FF700D3007057F0012084CAF4D9C
:1008A000AE4C22B4255FC2D5C204120809FF24D081
:1008B000B40A00501A75F00A784A30D50508B6FF18
:1008C0000106C6A426F620D5047002D20380D924DE
:1008D000CFB41A00EF5004C2E5D204020A4CD20190
:1008E00080C6D20080C0D20280BCD2D580BAD205E8
:1008F00080B47F2012083B2002077401B54A0040F3
:10090000F1120800FF12083B020874D208D20680D8
:1009100095120800FB120800FA120800F94A4B7001
:1009200006791D7A0B7BFF20022EE54A602A7E00A5
:100930008E82758300120D7D60060EEE654B70F0A1
:10094000C2D5EBC0E0EAC0E0E9C0E0EE120A93D005
:10095000E0F9D0E0FAD0E0FB120DFFFF60AAEBC097
:10096000E0EAC0E0E9C0E012083BD0E02401F9D0A1
:10097000E03400FAD0E0FBE54B0460DCD54BD980D5
:10098000877BFF7A0A798FD202809C791080027966
:1009900008C206C2088008D2D5790A8004790AC242
:1009A000D5E54B047002F54BE4FAFDFEFF1208009A
:1009B000FC7B08200113120800FD7B1030000A1296
:1009C0000800FE120800FF7B20EC3382D592D55040
:1009D00013C3E43000069FFFE49EFEE42001039D64
:1009E000FDE49CFCE4CBF8C201EC700CCFCECDCC86
:1009F000E824F8F870F38017C3EF33FFEE33FEED11
:100A000033FDEC33FCEB33FB994002FB0FD8E9EBF1
:100A1000300105F8D0E0C448B201C0E00AEC4D4E08
:100A20004F78207B0070C2EAB54B0040BCC0E0129A
:100A30000A95D0F0D0E0200104C4C0E0C4B201C0E7
:100A4000F0120824D0F0D5F0EB020874120E3A0927
:100A50001153098B5808E24C08DE42098F4F099761
:100A60004409974908F743099D550981460981457D
:100A70000981470B3D5008E62D08EA2E090D2B0889
:100A8000EE23090B200B262A08A648000009053F83
:100A90003F3F00790AA2D5200314300509B910029E
:100AA0000404B9080104A2D5200602500104200262
:100AB000689202B54A005034C0E07F203003197FAD
:100AC00030A20272067205500F120AECC202C20670
:100AD000C205C2087F30800F300503E9C0E012086C
:100AE0003B300503D0E0F9D0E0B54ACC3005177FA4
:100AF00030B9100C12083B7F583004077F78800310
:100B0000B9080312083B3002057F2D02083B7F2005
:100B10002008F87F2B2006F322920280CF286E75E2
:100B20006C6C2900D2011208003001F8C201784A29
:100B300030D50108F60208A62D5043495812080086
:100B40002403B405004001E4900B389312082C7480
:100B50003A12082CD203754A0402098B75240075D9
:100B60002528758902758A06758C06D28875A88332
:100B7000D28C120F327F01120FB12080180525E5AB
:100B80002570020524C39496E52464809480400572
:100B9000E4F524F52520811BE52515257002152493
:100BA000D3E5259400E524648094805006752400E4
:100BB000752596120F768E228F23120F768F828ED6
:100BC00083120F76E52324FCFDE52234FFFCC3E508
:100BD000829DEC6480F8E5836480985003020C8366
:100BE000E5232404FDE43522FCD3E5829DEC6480FA
:100BF000F8E5836480984003020C83E58224FCFDC1
:100C0000E58334FFFCC3EF9DEC6480F8EE648098CC
:100C10004071E5822404FDE43583FCD3EF9DEC6450
:100C200080F8EE648098505BE5829525E524648029
:100C3000F8E5836480984004D2B78002C2B7AF0D54
:100C4000AE0C120EEC753DFF753E0C753F8D8E405F
:100C50008F417B007A00792612085C7F01120FE831
:100C6000753DFF753E0C753F9F852240852341856C
:100C700024428525437B007A00792612085C7F0296
:100C8000120FE87F647E001210EC020B7A446F2092
:100C9000416D3A2020202564202525202020005465
:100CA0003D25646F432020546B633D25646F4320D2
:100CB0002020001FAD1F9A1F861F731F611F4F1F2B
:100CC0003D1F2B1F191F081EF71EE61ED61EC61E2F
:100CD000B61EA61E961E871E771E681E591E4B1E28
:100CE0003C1E2E1E1F1E111E031DF51DE71DD91DC6
:100CF000CC1DBE1DB01DA31D961D881D7B1D6E1D28
:100D0000611D531D461D391D2C1D1F1D121D051C67
:100D1000F81CEB1CDE1CD11CC41CB61CA91C9C1CA2
:100D20008F1C821C741C671C591C4C1C3E1C301CE4
:100D3000231C151C071BF91BEB1BDC1BCE1BBF1B4D
:100D4000B11BA21B931B851B751B661B571B481BE6
:100D5000381B281B181B081AF81AE81AD81AC71AC1
:100D6000B61AA51A941A831A721A601A4F1A3D1AE3
:100D70002B1A181A0619F419E119CE19BBBB010C6C
:100D8000E58229F582E5833AF583E0225006E925DC
:100D900082F8E622BBFE06E92582F8E222E58229F6
:100DA000F582E5833AF583E49322BC000BBE00296B
:100DB000EF8DF084FFADF022E4CCF875F008EF2F52
:100DC000FFEE33FEEC33FCEE9DEC984005FCEE9D0F
:100DD000FE0FD5F0E9E4CEFD22EDF8F5F0EE84202B
:100DE000D21CFEADF075F008EF2FFFED33FD40078C
:100DF000985006D5F0F222C398FD0FD5F0EA22BB39
:100E0000010689828A83E0225002E722BBFE02E3C8
:100E10002289828A83E49322BB010689828A83F035
:100E2000225002F722BBFE01F322FAE6FB0808E695
:100E3000F925F0F618E6CA3AF622D083D082F8E413
:100E4000937012740193700DA3A393F8740193F53A
:100E5000828883E4737402936860EFA3A3A380DFA6
:100E6000787FE4F6D8FD75814D020EA7020B5CE495
:100E700093A3F8E493A34003F68001F208DFF48023
:100E800029E493A3F85407240CC8C333C4540F4473
:100E900020C8834004F456800146F6DFE4800B014D
:100EA0000204081020408090118DE47E019360BC04
:100EB000A3FF543F30E509541FFEE493A360010EE5
:100EC000CF54C025E060A840B8E493A3FAE493A30C
:100ED000F8E493A3C8C582C8CAC583CAF0A3C8C52D
:100EE00082C8CAC583CADFE9DEE780BE8E3A8F3B7F
:100EF000E4FDFCED25E0FFEC33FE74B32FF58274C6
:100F00000C3EF583E53B2419FFE4353AFEC374013A
:100F1000939FEE6480F8E4936480985005AF05AE2B
:100F200004220DBD00010CED64654C70C67E007F8F
:100F300064221210CA7F3012116B1210CA7F201265
:100F400010D37F28120FB11210D67F04120FB112E6
:100F500010D67F85120FB11210D67F06120FB11274
:100F600010D67F01120FB11210D67F0F120FB17F72
:100F7000907E010210DAE4FAFFF53A12107B7FCC82
:100F800012112A7F4412115912107B7FCC12112AA0
:100F90007FBE12115912110CAA0712110CEF75F035
:100FA00010A4FFAEF0EA54F0C4540F2FFFE43EFE4D
:100FB00022AB07300904C2098002C2A0C2A1AF035C
:100FC0005307F053A00FEF42A0D2A21210D6C2A234
:100FD000EBC454F0FF5307F053A00FEF42A0D2A28E
:100FE0007F901210DAC2A222E4FD1211447B007A33
:100FF0000079268B3A8A3B893CE4F53DF53EAB3AD5
:10100000AA3BA93C853E82853D83120D7DFF600D84
:10101000121186053EE53E70E5053D80E122C0E007
:10102000C0D00509E50970020508C394A0E508646D
:1010300080948F4018750800750900E50B24D8F5D9
:101040000DE50A34F5F50C750A00750B00D0D0D00B
:10105000E032AB07AA067C007D0A120DAA8F0EAE05
:1010600002AF037C007D0A120DAAAA05E50E24300A
:10107000FF121186EA2430FF021186E4FDD2907F30
:1010800008FE121160C2907F507E00121160D29053
:101090007F0E7E00121160A290E433FD7F147E006B
:1010A000021160EFB40A07740D1210AE740A309882
:1010B00011A899B8130CC2983098FDA899C298B895
:1010C00011F63099FDC299F599227F907E01121098
:1010D000DA7F3012116B7F907E01E4FDFCC3ED9F3F
:1010E000EC9E50070DBD00010C80F222E4FDFCC314
:1010F000ED9FEC9E5015E4FBFA0BBB00010AEB647C
:10110000784A70F50DBD00010C80E422E4FB7D08F7
:10111000C290EBC313FBD2903090034303807F0453
:101120007E00121160DDE9AF0322AD077B08C2909B
:10113000ED1392907F057E00121160D290EDC313E3
:10114000FDDBEB22EF24FE600804700CED248080B0
:1011500003ED24C0FF120FB12212112A7F647E001A
:10116000EF1FAC0670011E4C70F622C2A0C2A18F08
:10117000A0D2A21210D6C2A222C0E0050BE50B70CD
:1011800002050AD0E032D209D2A0020FB1C1090093
:00000001FF
